:020000040800F2
:10000000C0EC002001150008A93900080B150008F4
:10001000AF390008B3390008B73900080000000004
:10002000000000000000000000000000BB390008D4
:10003000BD39000800000000BF390008C1390008C0
:100040004315000843150008431500084315000830
:10005000431500084315000845070008431500082C
:100060004315000843150008431500084315000810
:100070004315000843150008431500084315000800
:1000800043150008431500084315000843150008F0
:10009000431500084315000843150008DD4100081A
:1000A00043150008431500084315000843150008D0
:1000B00043150008431500084315000843150008C0
:1000C00043150008431500084315000843150008B0
:1000D0004315000869470008431500084315000848
:1000E0004315000843150008431500084315000890
:1000F0004315000843150008431500084315000880
:10010000431500084315000843150008431500086F
:10011000AB480008431500084315000843150008C4
:10012000431500084315000843150008431500084F
:10013000DFF814D015F0BEF914F016FC00480047A3
:10014000B1010008AFF30080C0EC002010B500281A
:1001500007DA0A07140E294A00F00F031B1FD454B4
:1001600003E00A07130E264A135410BD10B52548A4
:1001700000684FF47A71B0FBF1F4B4F1807F00D3E2
:1001800011E024F07F40401E4FF0E02148610F2134
:100190004FF0FF30FFF7DAFF00204FF0E0218861D9
:1001A0000720086100BF0121881EFFF7CFFF10BDA7
:1001B00010B5FFF7DBFF05F09AFC0EF0BBF80FF06F
:1001C000B6FB4FF4A06001F0C3F94FF4E13004F046
:1001D0007BFA03F0F7FF072003F0FAFF04F0A4FB1B
:1001E0000AF0A9FB00BF08480068B0F57A7FFAD38F
:1001F00013F0E4F90AF0C9FD002010BD18ED00E08D
:1002000000E400E0400000205400002030B5801CD5
:1002100040F8021CC0F80220C0F8063001248472A5
:100220000024C472C4600461446101258561C46115
:1002300005624462801E30BD01210E3000F8021CB0
:10024000002100F8011C0160416081604269816900
:10025000C26001610E38704770B504460D464DB15D
:100260002168D4F81630A66803FB061032462946EA
:1002700014F049FAA41D2069401C54F8021CB0FB7C
:10028000F1F201FB12002061E269206A521C40F188
:100290000000E261206272B6A068401CA0600020ED
:1002A000A071A06854F8021CA41F884201D101204B
:1002B000607362B670BD70B504460D464DB12068DE
:1002C000D4F81230A66803FB06013246284614F023
:1002D0001AFAA41DE068401C54F8021CB0FBF1F2AD
:1002E00001FB1200E0606269A069521C40F100004D
:1002F0006261A06172B6A068401EA060A068A41FE1
:1003000008B9012020730020607362B670BD000040
:1003100070B50446F9480568F94E44F480713046DA
:1003200002F0B8FF00BF4021304603F021F8012859
:1003300004D0F2480068401B6428F4D370BD70B547
:100340000446EE480568EE4E2146304602F0A2FF14
:1003500000BF4021304603F00BF8012804D0E748E5
:100360000068401B6428F4D370BD70B5E34804688E
:10037000E34D00BF2021284602F0FAFF012804D0F7
:10038000DE480068001B6428F4D3284602F086FF8C
:10039000C0B270BDD94A116800BF0A18D74B1B689C
:1003A0009A42FAD8704710B50120FFF7B1FFFFF766
:1003B000DCFF10BD70B506460220FFF7A9FFB6F5B9
:1003C000E13F1AD009DCB6F5165F0DD0B6F5964FB1
:1003D0000DD0B6F5614F19D10CE0B6F57A3F0FD0CC
:1003E000B6F5E12F12D10EE00224B2250EE0022470
:1003F000D9250BE00324982508E00324CC2505E04B
:100400000324E92502E00324F32500BF00BF2046B2
:10041000FFF795FF2846FFF792FF70BD10B5052046
:10042000FFF776FF3220FFF7B5FF10BD10B5FFF7DD
:100430009CFF0620FFF76CFF5520FFF780FFFFF7BA
:1004400094FF0446AA2C01D1012010BD0020FCE736
:1004500010B504461520FFF75BFFE0B2FFF76FFF12
:100460008020A8490870A8490870FFF77EFF51282E
:1004700001D1012010BD0020FCE710B52220FFF7BC
:1004800047FFFFF772FF0446204610BD10B51D2040
:10049000FFF73EFF9C480078FFF751FF9A4800782D
:1004A00080F040009849087010BD10B51C20FFF77F
:1004B0002FFF94480078FFF742FF9248007880F0C1
:1004C00040009049087010BD70B504460D464F209D
:1004D000FFF71EFFF02101EA041105F00F0241EAC7
:1004E0000200FFF72CFF70BD70B504460D462B20AF
:1004F000FFF70EFFE8B2FFF722FF03E014F8010B4D
:10050000FFF71DFF281EA5F10105F7D170BD70B5DD
:1005100004462820FFF7FCFEFFF727FF05460026CC
:1005200005E0FFF722FF04F8010B701CC6B2AE42D3
:10053000F7D1284670BD10B504460420FFF7E8FE49
:100540002046FFF7FCFE10BD10B504464520FFF71E
:10055000DFFE2046FFF7F3FEFFF707FF142801D167
:10056000012010BD0020FCE710B504461320FFF762
:10057000CFFE2046FFF7E3FEFFF7F7FE142801D178
:10058000012010BD0020FCE710B5044680205E4924
:1005900008705C4908704920FFF7BAFE2046FFF753
:1005A000CEFEFFF76AFF142801D1012010BD002004
:1005B000FCE770B504460D464120FFF7A9FE3DB1AA
:1005C00044F08000FFF7BBFE80204E49087005E034
:1005D0002046FFF7B4FE80204B490870FFF74DFF1F
:1005E00008B1012070BD0020FCE710B5044646208C
:1005F000FFF78EFE2046FFF7A2FEFFF73EFF14280E
:1006000001D1012010BD0020FCE710B50720FFF745
:100610001FFF0A20FFF7BEFE0620FFF719FF0A2082
:10062000FFF7B8FEFFF7A1FE512801D1012010BD50
:100630000020FCE71FB50120ADF80C0048208DF824
:100640000F0003208DF80E0003A9304801F004FBD1
:100650000021032001F016FC0120009000208DF8FD
:1006600004000C208DF8050001208DF80600684676
:1006700001F012FA06208DF8080003208DF8090019
:100680008DF80A0001208DF80B0002A800F065FF2C
:100690001FBD1CB50120009000208DF804000C2027
:1006A0008DF8050000208DF80600684601F0F4F989
:1006B0001CBD08B50220ADF8000010208DF8030025
:1006C00003208DF802006946104801F0C5FA0221A6
:1006D0000E4801F06EFB0520FFF75CFE02210B487F
:1006E00001F069FB2320FFF755FE08BD10B5044655
:1006F00000220121204604F067F810BD54000020BC
:10070000004C0040030000200400002000140140C1
:1007100010B54FF41650FFF7E9FF0020F7490870B5
:10072000F74908706421F74814F006F84021F648AC
:1007300014F002F84FF48071F44813F0FDFFFFF756
:10074000B8FF10BD70B5012001F01DFA04F093FF51
:10075000032836D1FFF791FE0446162C02D1FFF78D
:10076000D7FF70BD142C0FD00121E9480078FFF7A6
:1007700020FFFFF7CDFFE7480268E7A100200AF05D
:10078000F0FFFFF786FF14E0F048FFF7C0FE0546D4
:10079000142D06D1EE4800781B2802D11420EC4914
:1007A0000870EB480078854202D10120D4490870D6
:1007B00000BFFFF77AFE0921D5480078FFF784FED5
:1007C00000BF00BFCDE770B5E248007800F001003F
:1007D00050B9E04816F046FC30B1CE480068DE491A
:1007E0000860DC48AFF30080C4480078062878D25F
:1007F000DFE800F003111D2335AC4FF41650FFF76E
:10080000D9FD4FF41650FFF771FFFFF7FEFE0120F0
:10081000BA4908709CE0FFF730FE152800D097E039
:100820000220B6490870CDA016F0CCFB90E0FFF78F
:10083000ECFE0320B14908708AE0FFF71EFE152880
:1008400000D085E0CCA016F0BDFB0420AB490870B9
:10085000B048006800F57A70BF49086078E000BFD2
:10086000AC480068BC490968401AB0F57A7F00D2EC
:100870006AE00120FFF7B9FEA248FFF748FE0446F0
:100880003CB9C6A016F09EFBA2480068B2490860B9
:100890005AE02146CCA016F095FB002505E09948CA
:1008A000415DCDA016F08EFB6D1CA542F7DBC5A007
:1008B00016F088FB9348CA4908600846006800891A
:1008C00040F2AC5188420DD10120914908700220BC
:1008D000C44908704020C44908700B209C49087026
:1008E00013E034E0BE480068008942F2BC0188424F
:1008F0000BD10120864908700220BA4908704020B7
:10090000B94908701B2092490870B54800684289AF
:10091000B34800680189B5A016F054FB0120FFF729
:1009200033FE0120FFF710FE0120FFF71DFEFFF749
:1009300081FEFFF7BAFD092175480078FFF7C4FD75
:1009400005206E49087000BF00BF01E000E000BF55
:1009500000BF70BD2DE9F04104460E46002700257A
:1009600067E06078042814D006DC012809D002284A
:1009700008D0032857D10BE0052816D0152852D1EE
:1009800050E051E0227821469F4813F0BCFE4BE036
:100990004AE0227821469D4813F0B5FE9B48027933
:1009A00081789BA016F00EFB3EE022782146A248FB
:1009B00013F0A9FEA0488388C27881789FA016F022
:1009C00001FB9D48C07800F00300032829D19A4814
:1009D000807800F0800058B105F0010008BB96480F
:1009E000807800F00F004A49087045F0010518E0D2
:1009F00005F00200A8B99048807800F00F0079490E
:100A000008708D480079784908700846007818B158
:100A100008460078402802DD40207349087045F000
:100A2000020501E000E000BF00BF20780744207805
:100A30000444B74295DBBDE8F08110B50446304868
:100A4000007808B9002010BD00202D4908704048EA
:100A500002783E49204613F056FE0120F3E730B5F8
:100A600004468C4207DD944205DD9C4203DD0120F3
:100A7000804D287020E0A14207DD914205DD9942BA
:100A800003DD02207B4D287016E0A24207DD8A427A
:100A900005DD9A4203DD0320764D28700CE0A34269
:100AA00007DD8B4205DD934203DD0420714D287084
:100AB00002E005206F4D28706E48007830BD2DE9AA
:100AC000F04F89B000BFFFF77EFE01A8FFF7B5FF2A
:100AD00000B9EFE3684890F8470300B1F9E71C4814
:100AE00000780B2809D19DF80B0000F0100018B118
:100AF000052062490870D4E0C2E02FE10500002023
:100B00000600002054070020B8070020F807002046
:100B100002000020540000205B4552524F525D43BA
:100B20006C656172207374616C6C207374617465A0
:100B300021205265736574204348333735204D6F4B
:100B400064756C653A25646D730D0A0054060020C7
:100B500007000020080000200C0000205553422010
:100B6000636F6E6E6563746564206669727374206A
:100B700074696D65210D0A0055534220636F6E6ED6
:100B8000656374656420746865207365636F6E6463
:100B90002074696D65210D0A000000005B4552520A
:100BA0004F525D4661696C656420746F20726561A7
:100BB0006420646576696365206465736372697037
:100BC000746F72210D0A00004445565F6C656E67B4
:100BD00074683D25642C0000307825303278200080
:100BE0001C00002000000020010000206964566500
:100BF0006E64656F723A25782C696450726F647503
:100C000063743A25780D0A00F808002001090020D5
:100C1000496E746572666163655F494E4445583A32
:100C200025642C6861766520256420656E64706F8C
:100C3000696E743A0D0A000024000020456E64704D
:100C40006F696E745F414444523A3078253032788F
:100C50002C417474726962757465733A25642C4D05
:100C600061785F5061636B65743A25640D0A0D0A03
:100C70000000000010000020B09B002011040020A4
:100C80009DF80B0000F0080018B10420FD49087021
:100C900007E09DF80B0000F0020010B10320F949B5
:100CA00008709DF80C0000F0010060B19DF809008B
:100CB0004E214843322190FBF1F4204614F0B4F861
:100CC000F149086110E09DF80C0000F0020018B135
:100CD0000020ED49086107E09DF80C0000F00800D5
:100CE00010B1EA48E8490861E948007820B90120D4
:100CF000E8490860E64908709DF80B0000F04000E4
:100D000018B10120E449087007E09DF80B0000F0DD
:100D1000800010B10220E04908709DF8061080396B
:100D200049B2484214F080F880469DF80510803999
:100D300049B2484214F078F881469DF8081080398D
:100D400049B2484214F070F882469DF80710803985
:100D500049B2484214F068F88346E2E0CF48007890
:100D60001B2872D19DF8040000F0080018B105207E
:100D7000C449087010E09DF8040000F0010018B1AB
:100D80000420C049087007E09DF8040000F004004A
:100D900010B10320BB4908709DF8040000F040002A
:100DA00030B10920BE490860BE48B749086111E06A
:100DB0009DF8040000F0800030B10020B2490861C5
:100DC0000A20B749086005E0002018B1AE49086163
:100DD000B3490860AE48007820B90120AD490860E9
:100DE000AB4908709DF8040000F0100018B1012014
:100DF000A949087007E09DF8040000F0200010B138
:100E00000220A54908709DF80810803949B248426F
:100E100014F00AF880469DF80710803949B248421C
:100E200014F002F881469DF80A10803949B2484210
:100E300013F0FAFF82469DF80910803949B2484202
:100E400013F0F2FF83466CE0FFE79DF8070000F027
:100E5000800030B194A016F0B5F8052089490870DB
:100E600010E09DF8070000F0400018B1042085490B
:100E7000087007E09DF8070000F0200010B1032083
:100E8000804908709DF8080030B109208449086045
:100E900084487D49086112E09DF8090000F0800057
:100EA00030B10020784908610A207D49086006E0D9
:100EB000002020B118B1744908617949086074486C
:100EC000007820B9012073490860714908709DF8C5
:100ED000070000F0010018B101206F49087007E019
:100EE0009DF8070000F0020010B102206A49087066
:100EF0009DF80D1048B213F097FF80469DF80B1037
:100F000049B2484213F090FF81469DF8111048B253
:100F100013F08AFF82469DF80F1048B213F084FF49
:100F200083465D4800785B49086000BF404616F084
:100F30002FF804464FF0844114F048F820D2484678
:100F400016F026F804464FF0844114F03FF817D20B
:100F5000504616F01DF804464FF0844114F036F860
:100F60000ED2584616F014F804464FF0844114F09F
:100F70002DF805D200204A4908604F49086084E2F4
:100F8000584616F005F8009013F093FFC4B250468F
:100F900015F0FEFF009013F08CFFC5B2484615F027
:100FA000F7FF009013F085FFC6B2404615F0F0FF42
:100FB000009013F07EFFC7B223462A4631463846DA
:100FC000FFF74DFD06285CD2DFE800F05B03B9EFC8
:100FD000EEED3348006828B938490868002113F05D
:100FE000F5FF11D02E480068012804D100214046A9
:100FF00013F0F6FF08D32A48006802281DD100210B
:10100000404613F0E3FF18D80021404613F0E8FFF4
:1010100001D2012000E00220214908600021404661
:1010200013F0DEFF04D226A100200AF09AFB0AE0AA
:1010300025A100200AF095FB05E000201849086072
:1010400023A10AF08EFB13480068022850D14046C5
:1010500015F09EFF05464FF0844113F0E7FC04466F
:1010600015480168204613F0BBFF09D2404615F031
:101070008FFF04464FF0844113F0D8FC0E490860FE
:101080002CE0FFE111040020F09A002000009643BC
:1010900011000020D00300201800002007000020CD
:1010A000D403002000004843475249505045524362
:1010B0004C4F53650D0A00001400002068A1002069
:1010C000232323582B0D0A00232323582D0D0A0018
:1010D0002323235849444C45320D0A004FF07F51D9
:1010E000ED48006813F0A8FCEC49C1F8C40025E005
:1010F000EB480068012821D1404615F049FF05461C
:101100004FF0844113F092FC0446E3480168204606
:1011100013F066FF09D2404615F03AFF04464FF03F
:10112000844113F083FCDC4908604FF07F51DA48BA
:10113000006813F081FCD949C1F8A400A3E1D948A3
:10114000006828B9D8490868002113F03FFF11D082
:10115000D4480068032804D10021484613F040FF1A
:1011600008D3D0480068042820D10021484613F055
:101170002DFF1BD80021484613F032FF01D2032077
:1011800000E00420C74908600021484613F028FF0A
:1011900004D2C6A100200AF0E4FA0DE0C5A10020A7
:1011A0000AF0DFFA08E069E1DFE054E00020BD4921
:1011B0000860C2A10AF0D5FAB9480068022823D114
:1011C000484615F0E5FE05464FF0844113F02EFC2D
:1011D0000446B1480168204613F002FF09D2484690
:1011E00015F0D6FE04464FF0844113F01FFCAA49C7
:1011F00008604FF07F51A848006813F01DFC0146BD
:10120000A648C0F8C81025E0A5480068012821D1EB
:10121000484615F0BDFE05464FF0844113F006FC2C
:1012200004469D480168204613F0DAFE09D248467C
:1012300015F0AEFE04464FF0844113F0F7FB9649DB
:1012400008604FF07F519448006813F0F5FB934914
:10125000C1F8A80017E19348006828B992490868C6
:10126000002113F0B3FE11D08E480068052804D188
:101270000021504613F0B4FE08D38A4800680628BF
:101280001ED10021504613F0A1FE19D8002150466E
:1012900013F0A6FE01D2052000E006208149086077
:1012A0000021504613F09CFE05D287A100200AF0D1
:1012B00058FA0BE0EBE086A100200AF052FA05E0B4
:1012C00000207849086084A10AF04BFA744800684D
:1012D000022823D1504615F05BFE05464FF08441AD
:1012E00013F0A4FB04466C480168204613F078FE16
:1012F00009D2504615F04CFE04464FF0844113F0DD
:1013000095FB654908604FF07F516348006813F012
:1013100093FB01466148C0F8CC1025E060480068A6
:10132000012821D1504615F033FE05464FF0844187
:1013300013F07CFB044658480168204613F050FE29
:1013400009D2504615F024FE04464FF0844113F0B4
:101350006DFB514908604FF07F514F48006813F012
:101360006BFB4E49C1F8AC008DE04E48006828B9CF
:101370004D490868002113F029FE11D04948006842
:10138000072804D10021584613F02AFE08D3454807
:10139000006808281DD10021584613F017FE18D800
:1013A0000021584613F01CFE01D2072000E008205F
:1013B0003C4908600021584613F012FE04D249A1AE
:1013C00000200AF0CEF90AE048A100200AF0C9F98D
:1013D00005E000203349086046A10AF0C2F9304810
:1013E0000068022823D1584615F0D2FD05464FF07B
:1013F000844113F01BFB044627480168204613F084
:10140000EFFD09D2584615F0C3FD04464FF0844164
:1014100013F00CFB204908604FF07F511E48006814
:1014200013F00AFB01461D48C0F8D01025E01C4807
:101430000068012821D1584615F0AAFD05464FF055
:10144000844113F0F3FA044613480168204613F070
:10145000C7FD09D2584615F09BFD04464FF0844164
:1014600013F0E4FA0C4908604FF07F510A48006815
:1014700013F0E2FA0949C1F8B00004E0002009497C
:10148000086000E000BF00BF00BF00BF00BF00BF9A
:1014900009B0BDE8F08F000014000020B09B0020D0
:1014A000D0030020D403002068A100202323235967
:1014B0002B0D0A00232323592D0D0A002323235922
:1014C00049444C45320D0A002323235A2B0D0A00B0
:1014D0002323235A2D0D0A002323235A49444C4524
:1014E000320D0A00232323522B0D0A0023232352FB
:1014F0002D0D0A002323235249444C45320D0A0086
:101500001048804710480047FEE71EF0040F0CBF4C
:10151000EFF30880EFF309804FF00051884282F228
:10152000A1860A4909684FF09202914242F09A86D8
:1015300002F05CBFFEE7FEE7FEE7FEE7FEE7FEE740
:10154000FEE7FEE7A73800083101000829ED00E0BA
:1015500031490143314A1160704770B500210023C1
:101560000F22C47804B32D4C246804F4E064C4F55D
:10157000E064210AC1F10403CA40447804FA03F18B
:101580008478144021430901254C0678A15504783C
:1015900004F01F050124AC4005786D11AD0005F184
:1015A000E025C5F8004109E0047804F01F05012496
:1015B000AC401C4D0678761145F8264070BD1A4A9D
:1015C0000A400243154B1B1F1A60704739B1134A7A
:1015D000121D12680243114B1B1D1A6006E00F4AD0
:1015E000121D126882430D4B1B1D1A6070470428A0
:1015F00008D14FF0E021096941F004014FF0E022E9
:10160000116107E04FF0E021096921F004014FF07A
:10161000E0221161704700000000FA050CED00E0C7
:1016200000E400E080E100E080FFFF1F10B5044609
:10163000FA48844208D10121401502F07BF80021CC
:10164000601502F077F817E0F548844208D10121CF
:10165000001502F06FF80021201502F06BF80BE086
:10166000F048844208D10121C80302F063F8002148
:101670004FF4004002F05EF810BD30B50246002085
:1016800000235068E84C20400D790C6844EA05249A
:10169000204350609068E54C2040D1E902542C432F
:1016A0004D7944EA450420439060D06A20F47000EC
:1016B0000C7C641EE4B2234340EA0350D06230BD88
:1016C00000210160017141718160C16001210174DB
:1016D000704721B1826842F00102826003E08268B3
:1016E00022F001028260704721B1826842F4807268
:1016F000826003E0826822F480728260704710B5D5
:101700000023CBB21AB144681C43446002E0446831
:101710009C43446010BD816841F0080181607047BE
:10172000014600208A6802F008020AB1012000E0A8
:1017300000207047816841F00401816070470146D4
:1017400000208A6802F004020AB1012000E00020B3
:10175000704721B1826842F4A002826003E082688F
:1017600022F4A00282607047014600208A6802F4D9
:1017700080020AB1012000E00020704710B50A463F
:1017800000210023416821F46041531E41EA4331A6
:10179000416010BD21B1426842F40062426003E042
:1017A000426822F4006242607047F0B504460D467C
:1017B00000200021092D11DDE068A5F10A0606EBE5
:1017C0004607072606FA07F18843A5F10A0606EB45
:1017D000460603FA06F10843E0600CE0206905EBD9
:1017E0004507072606FA07F1884305EB450603FA85
:1017F00006F108432061072A0FDA606B561E06EBDC
:1018000086071F2606FA07F18843561E06EB860652
:1018100005FA06F10843606322E00D2A0FDA206B17
:10182000D61F06EB86071F2606FA07F18843D61F48
:1018300006EB860605FA06F10843206310E0E06A2D
:10184000A2F10D0606EB86071F2606FA07F188436C
:10185000A2F10D0606EB860605FA06F10843E062E2
:10186000F0BD21B1826842F48012826003E0826898
:1018700022F48012826070470146C86C80B27047C3
:1018800066484C300068704721B1426842F480627B
:10189000426003E0426822F480624260704721B1F6
:1018A000426842F48052426003E0426822F480526F
:1018B000426070470A460021816821F4E0411143EB
:1018C0008160704721B1826842F40042826003E087
:1018D000826822F400428260704721B1826842F43B
:1018E0000212826003E0826822F402128260704772
:1018F000014600208A6802F400120AB1012000E0CB
:1019000000207047F0B5044615460020002200264E
:10191000092911DDE068A1F10A0707EB470C072749
:1019200007FA0CF29043A1F10A0707EB470703FA05
:1019300007F21043E0600CE0206901EB410C07273F
:1019400007FA0CF2904301EB410703FA07F2104348
:101950002061A06BC0F30156EF1C06F1010CA7EB50
:101960000C0707EB870C1F2707FA0CF29043EF1CBC
:1019700006F1010CA7EB0C0707EB870701FA07F24A
:101980001043A063F0BD10B50A4600210023816B0F
:1019900021F44011531E41EA0351816310BD08B583
:1019A000002300930090009B0B440093009B1A605F
:1019B00008BD08B5024600200090009201F1280001
:1019C000009B184400900098006880B208BD0A4649
:1019D00000214168164B1940114341607047416234
:1019E000826270470A460021416821F01F011143BD
:1019F0004160704740B109490831096841F400016C
:101A0000064A0832116007E004490831096821F4E8
:101A10000001024A083211607047000000240140B2
:101A200000280140003C0140FFFEF0FFFDF7F1FF00
:101A3000FFFD3FFF0246002013680B400BB1012061
:101A400000E000207047CA430260704770B502464C
:101A50000020002300240B125568CEB205EA0604CC
:101A600015681D4015B10CB1012000E0002070BDCB
:101A700000220A12D343036070470000002044494B
:101A80000860091D0860091D0860091D08604148BB
:101A90003F4914310860704700213D498279002A8E
:101AA0003AD00A46126803689A430B461A600A1D28
:101AB000126803689A430B1D1A60027911440A6880
:101AC00003681A430A60324A0832126803689A436C
:101AD0002F4B08331A601A1D126803689A432C4B67
:101AE0000C331A604279102A0ED11A1F126803684B
:101AF0001A43274B08331A601A1D126803681A43E9
:101B0000234B0C331A600DE02149427911440A68D5
:101B100003681A430A6005E0027911440A68036801
:101B20009A430A6070470021016001710C214171E4
:101B30000021817170471649103109680143144A28
:101B400010321160704701460020114A14321268A9
:101B50000A400AB1012000E0002070470C4914310E
:101B600008607047014600200022094B1B6803EA09
:101B70000102074B14331B680B4013B10AB101205B
:101B800000E00020704702491431086070470000EF
:101B900000040140FFFF0F0010B50446CC4884420A
:101BA00008D10121042001F0C5FD0021042001F02D
:101BB000C1FD46E0C748844208D10121082001F058
:101BC000B9FD0021082001F0B5FD3AE0C248844289
:101BD00008D10121102001F0ADFD0021102001F0FD
:101BE000A9FD2EE0BD48844208D10121202001F04A
:101BF000A1FD0021202001F09DFD22E0B848844293
:101C000008D10121402001F095FD0021402001F084
:101C100091FD16E0B348844208D10121802001F0F3
:101C200089FD0021802001F085FD0AE0AE48844254
:101C300007D10121801501F07DFD0021A01501F0E3
:101C400079FD10BD10B50121084601F073FD00219A
:101C5000012001F06FFD10BD2DE9F0410246002585
:101C60000026002000230024002791F803C00CF078
:101C70000F0591F803C00CF0100CBCF1000F03D05D
:101C800091F802C04CEA050591F800C0BCF1000FC4
:101C900031D0146800202BE04FF0010C0CFA00F357
:101CA000B1F800C00CEA03069E4220D183004FF039
:101CB0000F0C0CFA03F7BC4305FA03FC4CEA0404CE
:101CC00091F803C0BCF1280F06D14FF0010C0CFABB
:101CD00000FCC2F814C00AE091F803C0BCF1480F40
:101CE00005D14FF0010C0CFA00FCC2F810C0401CEA
:101CF0000828D1D31460B1F800C0BCF1FF0F34DD67
:101D0000546800202EE000F1080C4FF0010808FA9A
:101D10000CF3B1F800C00CEA03069E4221D1830007
:101D20004FF00F0C0CFA03F7BC4305FA03FC4CEA26
:101D3000040491F803C0BCF1280F05D100F1080C90
:101D400008FA0CF8C2F8148091F803C0BCF1480FEF
:101D500007D100F1080C4FF0010808FA0CF8C2F89E
:101D60001080401C0828CED35460BDE8F0814FF6A7
:101D7000FF710180022181700421C1707047024609
:101D8000002093680B400BB1012000E00020704759
:101D90000146886880B2704702460020D3680B4035
:101DA0000BB1012000E0002070470146C86880B2F6
:101DB000704701617047416170470AB1016100E0FD
:101DC00041617047C16070474FF480320A438261BD
:101DD0008161826182698269704702460020434BBB
:101DE00018684FF68073184040EA021008433F4BD2
:101DF000186070473E49C8617047F0B50A46002335
:101E000000240021002500F00046B6F1004F02D169
:101E1000364EF16901E0354E7168C0F3034583B277
:101E200000F44016B6F5401F08D121F070612F4E26
:101E3000766826F070662D4F7E6012E000F4801602
:101E4000B6F5801F06D1032606FA05F4A14341F03A
:101E5000706106E0460D360103FA06F6B14341F023
:101E6000706122B1460D360103FA06F6314300F0E7
:101E70000046B6F1004F02D11C4EF16101E01B4E4D
:101E80007160F0BD30B500228B071C0F0F2303FAE1
:101E900004F2164B08338C1053F824309343134C40
:101EA00008348D1044F8253023468C1053F8243024
:101EB0008C07240F00FA04F423430C4C08348D10D3
:101EC00044F8253030BD0A49DC3108607047000015
:101ED00000080140000C01400010014000140140C6
:101EE00000180140001C014000200140000001409A
:101EF0000000204210B50446BE48844208D10121AA
:101F0000801401F017FC0021A01401F013FC16E06E
:101F1000B948844208D10121001401F018FC0021C5
:101F2000201401F014FC0AE0B448844207D10121D6
:101F3000C01301F00CFC0021E01301F008FC10BDFF
:101F400010B50022028802F441520B884C882343CA
:101F50008C882343CC8823430C8923434C89234317
:101F60008C892343CC8923431A430280838B4FF20D
:101F7000FF74234083830B8A038210BD2DE9F04F49
:101F800085B005460C464FF0000902274FF00008C7
:101F90004FF0010B0026B246A88B4FF240010840DB
:101FA000A88302202884B5F81C90A068022801D1DB
:101FB00000BF38E0A08810B94FF0010B01E04FF0EE
:101FC000020B8D48854200D100E000BF684601F059
:101FD0002AFBDDF800A0E088B0F5007F0AD14FEAC7
:101FE0001A2000EB80004000A168B0FBF1F0401D1A
:101FF00086B20BE04FEA4B10BAFBF0F000EB80002A
:102000004000A168B0FBF1F0401D86B20A20B6FB8B
:10201000F0F606F00108A6EB0800C0F34F074FF6F4
:10202000FF7000EA0828022F01DBFF2F02DD0227E4
:102030004FF00008E08840EA080038432884A08870
:10204000A1890843618808432188084340F400605F
:1020500040EA0909A5F81C9005B0BDE8F08F002101
:10206000018041808180C180018141818181C18164
:102070000721018270470021018041808180C18059
:102080000221816000218181704721B1028842F0E4
:102090004002028004E002884FF6BF731A400280BB
:1020A000704721B1828B42F48062828304E0828B8C
:1020B0004FF6FF331A408283704730B50024002367
:1020C0000C110125A540ABB21AB185881D4385804E
:1020D00002E085889D43858030BD1AB183880B431B
:1020E000838002E083888B438380704781817047BF
:1020F0000146888970474FF6FF62914204D00288FA
:1021000042F48072028004E002884FF6FF631A40B6
:102110000280704721B1828842F00402828004E08C
:1021200082884FF6FB731A408280704702884FF214
:10213000FF731A40028002880A43028070470188B8
:1021400041F480510180704721B1028842F400526D
:10215000028004E002884DF6FF731A400280704747
:1021600002460020012901D0108B00E0908A7047C0
:102170000146088A7047B1F5804F04D1028842F4C5
:102180008042028004E002884BF6FF731A4002800E
:1021900070470246002013890B400BB1012000E07C
:1021A00000207047CA4302817047F0B50246002004
:1021B00000240023002501F00F070126BE40B4B221
:1021C0000B1101269E40B3B2968806EA03051689D4
:1021D000264016B10DB1012000E00020F0BD10B581
:1021E000002201F00F040123A3409AB2D3430381DC
:1021F00010BD00000030014000380040003C0040AD
:1022000010B50446FE48844208D10121C01401F0F3
:1022100091FA0021E01401F08DFAC4E0B4F1804F8E
:1022200008D10121084601F092FA0021012001F0B5
:102230008EFAB8E0F348844208D10121022001F06F
:1022400086FA0021022001F082FAACE0EE488442D6
:1022500008D10121042001F07AFA0021042001F0C4
:1022600076FAA0E0E948844208D10121082001F073
:102270006EFA0021082001F06AFA94E0E4488442F2
:1022800008D10121102001F062FA0021102001F094
:102290005EFA88E0DF48844208D10121202001F065
:1022A00056FA0021202001F052FA7CE0DA488442FC
:1022B00008D10121401401F03DFA0021601401F021
:1022C00039FA70E0D548844209D10121C80401F0EF
:1022D00031FA00214FF4002001F02CFA63E0D048DD
:1022E000844209D10121080501F024FA00214FF4AC
:1022F000801001F01FFA56E0CA48844209D101213A
:10230000480501F017FA00214FF4001001F012FA0D
:1023100049E0C548844208D10121402001F017FA64
:102320000021402001F013FA3DE0C048844208D16A
:102330000121802001F00BFA0021802001F007FA32
:1023400031E0BB48844208D10121801501F0FFF93A
:102350000021A01501F0FBF925E0B648844209D11F
:102360000121080401F0E6F900214FF4803001F06A
:10237000E1F918E0B048844209D10121480401F094
:10238000D9F900214FF4003001F0D4F90BE0AB484B
:10239000844208D10121880401F0CCF900214FF4D6
:1023A000802001F0C7F910BD00220288944B9842AA
:1023B0000ED0994B98420BD0B0F1804F08D0914B82
:1023C000984205D0904B984202D0904B984204D14D
:1023D0004FF68F731A404B881A438D4B984207D0A3
:1023E0008C4B984204D04FF6FF431A40CB881A43D7
:1023F00002808B8883850B880385814B98420BD0A4
:10240000854B984208D08B4B984205D08A4B984216
:1024100002D08A4B984201D10B7A03860123838232
:10242000704770B5002400220023058C4FF6FE761D
:1024300035400584028C8388048B4FF68F752C40C1
:10244000B51E2C400D882C43751E2A400D892A4349
:102450004D882A436A4DA8420BD06F4DA84208D040
:10246000744DA84205D0744DA84202D0734DA842C5
:1024700013D14FF6F7752A404D892A434FF6FB7565
:102480002A408D882A434FF6FF652B404FF6FF55B3
:102490002B408D892B43CD892B4383800483CD88AA
:1024A0008586028470BD70B5002400220023058C4F
:1024B0004FF6EF7635400584028C8388048B48F60E
:1024C000FF752C404FF6FF452C400D884FF6FF76E8
:1024D00006EA05252C434FF6DF752A400D8906EAEA
:1024E00005152A434D8806EA05152A43444DA8429E
:1024F00002D0494DA8421DD14FF67F752A404D8923
:102500004FF6FF7606EA05152A434FF6BF752A40B7
:102510008D8806EA05152A434FF6FF352B404FF20A
:10252000FF752B408D8906EA85052B43CD8906EA88
:1025300085052B4383800483CD880587028470BD85
:1025400070B5002400220023058C4FF6FF6635404D
:102550000584028C8388848B4FF68F752C404FF650
:10256000FC752C400D882C434FF6FF552A400D89F1
:102570004FF6FF7606EA05252A434D8806EA05252B
:102580002A431F4DA84202D0234DA8421DD14FF22D
:10259000FF752A404D894FF6FF7606EA05252A4346
:1025A0004FF6FF352A408D8806EA05252A434EF668
:1025B000FF752B404DF6FF752B408D8906EA0515FA
:1025C0002B43CD8906EA05152B4383808483CD8870
:1025D0008587028470BD70B5002200230024058C1D
:1025E0004EF6FF7635400584038C8488828B48F64E
:1025F000FF752A404FF6FF452A400D8820E0000075
:10260000002C01400004004000080040000C004085
:10261000001000400014004000340140004C014014
:10262000005001400054014000180040001C0040D0
:1026300000200040004001400044014000480140AB
:102640004FF6FF7606EA05252A434DF6FF752B4027
:102650000D8906EA05352B434D8806EA05352B43DF
:10266000FA4DA84202D0FA4DA84208D14BF6FF75A8
:102670002C408D894FF6FF7606EA85152C43848021
:102680008283CD88A0F84050038470BD828B4FF2C6
:10269000FF331A408283828B4FF6FF7303EA0123D4
:1026A0001A4382837047F0B50C461546002200217C
:1026B0000026078C4EF6FF7C07EA0C070784828B06
:1026C000018C4FF6FF7707EA043640F6FF473A40A1
:1026D0004FF6FF7707EA05273A434FF6FF7707EAF9
:1026E00003373A43D94FB8420ED0D94FB8420BD036
:1026F000B0F1804F08D0D74FB84205D0D64FB8427E
:1027000002D0D64FB84206D14DF6FF77394046F495
:102710008057394305E047F6FF57394044F4805766
:10272000394382830184F0BD828B4FF6F3731A40E4
:102730008283828B0A4382837047F0B50C4615462C
:10274000002200210026078C4FF6FF6C07EA0C07D9
:102750000784828B018C4FF6FF7707EA04264FF639
:102760000C773A404FF6FF7707EA03172F433A43B7
:10277000B64FB8420ED0B64FB8420BD0B0F1804F32
:1027800008D0B44FB84205D0B34FB84202D0B34FCF
:10279000B84206D14FF6FF57394046F480773943A7
:1027A00005E04FF2FF57394044F480773943828384
:1027B0000184F0BD028B4FF2FF331A400283028B7B
:1027C0004FF6FF7303EA01231A4302837047F0B503
:1027D0000C461546002200210026078C4FF6EF7CA0
:1027E00007EA0C070784028B018C4FF6FF7707EA94
:1027F000041640F6FF473A404FF6FF7707EA0337E3
:102800003A434FF6FF7707EA05273A438F4FB8421E
:102810000ED08F4FB8420BD0B0F1804F08D08D4F03
:10282000B84205D08C4FB84202D08C4FB84206D186
:102830004FF6DF77394046F01007394305E04FF691
:102840005F77394044F01007394302830184F0BDBB
:10285000028B4FF6F3731A400283028B0A43028302
:102860007047F0B50C46154600220021068C4FF645
:10287000FE773E400684028B018C4FF60C76324088
:102880007E1C06EA03162E433243704EB0420ED031
:102890006F4EB0420BD0B0F1804F08D06D4EB042B9
:1028A00005D06D4EB04202D06C4EB04206D14FF60C
:1028B000FD76314044F00106314305E04FF6F576F0
:1028C000314044F00106314302830184F0BD70B50C
:1028D00005460C465D4885420ED05D4885420BD0CA
:1028E000B5F1804F08D05B48854205D05A488542F3
:1028F00002D05A48854200D100E000BF208850B97C
:102900002389A28861882846FFF7ABFFE188284623
:10291000FFF79EFF25E0208804280AD12389A2889A
:1029200061882846FFF753FFE1882846FFF742FFFA
:1029300017E0208808280AD12389A28861882846C0
:10294000FFF7FBFEE1882846FFF7EEFE09E023894A
:10295000A28861882846FFF7A6FEE1882846FFF78F
:1029600095FE70BD2DE9F04105460C460026012775
:10297000608808B9022600E00026A088012801D15D
:10298000022700E001272088A0B92389A288618856
:102990002846FFF766FFE1882846FFF759FF23899D
:1029A0003A4631462846FFF712FFE1882846FFF7EE
:1029B00001FF13E02389A28861882846FFF707FFFB
:1029C000E1882846FFF7F6FE23893A463146284635
:1029D000FFF747FFE1882846FFF73AFFBDE8F0819F
:1029E0000A884B881A438B881A43CB881A430B8971
:1029F0001A434B891A438B891A43A0F84420704725
:102A00004FF6FF71818000210180C18041800172F9
:102A100070470021018041808180C1800181418116
:102A20008181C18170470021018041800121818025
:102A30000021C18001817047002101804180818097
:102A4000C18001814181818170470000002C0140DB
:102A5000003401400004004000080040000C004029
:102A600021B1028842F00102028004E002884FF6A0
:102A7000FE731A400280704731B1B0F8442042F42E
:102A80000042A0F8442005E0B0F84420C2F30E0252
:102A9000A0F8442070471AB183890B43838102E078
:102AA00083898B43838170478182704741EA0203A7
:102AB000A0F8483070471AB183890B43838102E044
:102AC00083898B438381704701894FF6F8721140E7
:102AD000018170470A46002101894FF68F73194022
:102AE00011430181704730B504460D462946204602
:102AF000FFF7F0FF208940F00700208130BD2DE96D
:102B0000F04104460D4616461F46602D06D13B4651
:102B1000012231462046FFF75AFE05E03B460122DE
:102B200031462046FFF79DFE29462046FFF7D2FF9B
:102B3000208940F007002081BDE8F08130B50C46C7
:102B400000210189C9B24FF6FF7505EA0325154337
:102B500025432943018130BD2DE9F04105460E464C
:102B600017469846002443463A4631462846FFF722
:102B7000E5FF2C894FF6F870044044F007044FF647
:102B80008F70044044F070042C81BDE8F081F0B5F2
:102B900004460D4616461F463B4632462946204609
:102BA000FFF7CCFF208940F480402081F0BD0185F3
:102BB000828270470A46002101884FF68F731940C0
:102BC000114301807047F0B50C4615461E460021A2
:102BD000002200230189028B038C4FF6F8773940DD
:102BE00021434FF6FC473A4040F201173A434FF673
:102BF000DD773B404FF6FF7707EA06172F433B434D
:102C0000018102830384F0BD0A460021018B4FF647
:102C10008F7319401143018370470A460021018BCD
:102C200048F6FF7319404FF6FF7303EA0223194376
:102C3000018370470A460021818B4FF68F7319403C
:102C40001143818370470A460021818B48F6FF7348
:102C500019404FF6FF7303EA02231943818370473B
:102C600021B1028842F08002028004E002884FF61F
:102C70007F731A400280704721B1828842F00402BB
:102C8000828004E082884FF6FB731A40828070478E
:102C900021B1828842F00802828004E082884FF6E7
:102CA000F7731A408280704721B1828842F0010296
:102CB000828004E082884FF6FE731A40828070475B
:102CC0000A460021018B4FF6F77319401143018327
:102CD00070470A460021018B4FF2FF7319404FF6EF
:102CE000FF7303EA02231943018370470A46002158
:102CF000818B4FF6F77319401143818370470A4661
:102D00000021818B4FF2FF7319404FF6FF7303EAE6
:102D100002231943818370470A460021018B4FF635
:102D2000FB7319401143018370470A460021018B50
:102D30004FF6FF3319404FF6FF7303EA022319439E
:102D4000018370470A460021818B4FF6FB731940BF
:102D50001143818370470A460021818B4FF6FF3370
:102D600019404FF6FF7303EA02231943818370472A
:102D70000A460021018B4FF67F73194011430183EE
:102D800070470A460021018BC1F30E014FF6FF7315
:102D900003EA02231943018370470A460021818B0D
:102DA0004FF67F7319401143818370470A46002113
:102DB000818BC1F30E014FF6FF7303EA022319431F
:102DC000818370470A460021018C4FF6FD7319403C
:102DD0001143018470470A460021018C4FF6F773B6
:102DE00019401143018470470A460021018C4FF6B7
:102DF000DF7319404FF6FF7303EA0213194301848E
:102E000070470A460021018C4FF67F7319404FF638
:102E1000FF7303EA02131943018470470A46002135
:102E2000018C4FF6FF5319404FF6FF7303EA02235C
:102E30001943018470470A460021018C4FF2FF7349
:102E400019404FF6FF7303EA0223194301847047C8
:102E50000A460021018C4DF6FF7319404FF6FF73AF
:102E600003EA023319430184704730B5002301247B
:102E70008C40A3B2048C9C430484048C02FA01F5B8
:102E8000ADB22C43048430BD30B5002304248C4003
:102E9000A3B2048C9C430484048C02FA01F5ADB205
:102EA0002C43048430BD70B503460020002418462E
:102EB000183001258D40ACB21D8CA5431D8409B18D
:102EC000082909D100EB6100056825F0700505604F
:102ED0000568154305600EE00D1FC5F34E05284437
:102EE000056825F4E045056005684FF6FF7606EABB
:102EF00002263543056070BD21B1028842F002020E
:102F0000028004E002884FF6FD731A400280704789
:102F100021B1028842F00402028004E002884FF6E8
:102F2000FB731A400280704721B1828842F0800210
:102F3000828004E082884FF67F731A408280704757
:102F400002884FF6F7731A40028002880A43028013
:102F5000704782884FF68F731A40828082880A43B6
:102F60008280704702894FF6F8731A400281028905
:102F70000A430281704702894FF67F731A4002812B
:102F800002890A43028170478184704781857047B6
:102F9000818670470187704781877047A0F840108D
:102FA000704702884FF6FF431A40028002880A43A6
:102FB000028070470146888E70470146088F70472F
:102FC0000146888F70470146B1F8400070470146BE
:102FD000888C70470146088D704702460020138A8E
:102FE0000B400BB1012000E000207047CA43028271
:102FF000704730B50246002000230024158A05EAF8
:103000000103958905EA010413B10CB1012000E028
:10301000002030BDCA4302827047000010B504464C
:10302000FB48844209D10121880300F083FB002181
:103030004FF4804000F07EFB32E0F648844209D134
:103040000121480400F083FB00214FF4003000F020
:103050007EFB25E0F048844209D10121880400F07C
:1030600076FB00214FF4802000F071FB18E0EB4864
:10307000844209D10121C80400F069FB00214FF40A
:10308000002000F064FB0BE0E548844208D10121F8
:10309000080500F05CFB00214FF4801000F057FBA6
:1030A00010BD2DE9F04786B005460E460024A24625
:1030B00000BFA1460027B08900B100BF2F462C8A6F
:1030C0004CF6FF700440F08804432C82AC894EF625
:1030D000F3100440B08831890843718908430443E0
:1030E000AC81AC8A4FF6FF400440B0890443AC8207
:1030F00001A800F098FAC648874202D1DDF810A076
:1031000001E0DDF80CA0A88900F4004040B10AEB12
:10311000CA0000EB0A1031684900B0FBF1F807E083
:103120000AEBCA0000EB0A1031688900B0FBF1F825
:103130006420B8FBF0F004012009642101FB108930
:10314000A88900F4004040B1322000EBC900B0FB78
:10315000F1F000F00700044308E0322000EB091012
:103160006421B0FBF1F000F00F0004432C8106B0A5
:10317000BDE8F0874FF41651016000218180C180C5
:1031800001810C21418100218181704710B50246E7
:103190000020108A4FF2FF0318400B884C8823430D
:1031A0008C882343CC8823431843108210BD002110
:1031B000018041808180C180704721B1828942F4C1
:1031C0000052828104E082894DF6FF731A408281A9
:1031D0007047F0B50346002400260025002040F685
:1031E0006A17B94200D100BF1846C1F3421401F07A
:1031F0001F06012707FA06F5012C01D10C3004E067
:10320000022C01D1103000E014301AB107682F43AE
:10321000076002E00768AF430760F0BD1AB1838A18
:103220000B43838202E0838A8B4383827047028A46
:103230004FF6F0731A400282028A0A4302827047F4
:1032400082894FF2FF731A40828182890A43828108
:10325000704721B1828942F00202828104E08289B2
:103260004FF6FD731A4082817047028A4FF6DF7372
:103270001A400282028A0A430282704721B1028AFE
:1032800042F48042028204E0028A4BF6FF731A4045
:1032900002827047C1F30802828070470146888825
:1032A000C0F308007047818941F0010181817047B6
:1032B000028BD2B20283028B42EA01220283704760
:1032C000028B02F47F420283028B0A43028370471F
:1032D00021B1828A42F02002828204E0828A4FF683
:1032E000DF731A408282704721B1828A42F0100255
:1032F000828204E0828A4FF6EF731A40828270471E
:1033000021B1828A42F00802828204E0828A4FF66A
:10331000F7731A408282704721B1828942F40042D9
:10332000828103E08289C2F30E028281704721B15B
:10333000828A42F40062828204E0828A4FF2FF7342
:103340001A4082827047828A4FF6FB731A4082824B
:10335000828A0A438282704721B1828A42F0020245
:10336000828204E0828A4FF6FD731A40828270479F
:1033700002460020B1F5007F00D100BF13880B404A
:103380000BB1012000E00020704701F40072B2F59B
:10339000007F00D100BFCA430280704770B502466B
:1033A000002400230025002040F66A16B14200D117
:1033B00000BFC1F3421501F01F03012606FA03F313
:1033C000012D02D19689334006E0022D02D1168AE2
:1033D000334001E0968A33400C12012606FA04F4C9
:1033E0001688344013B10CB1012000E0002070BDFC
:1033F00010B50022002340F66A14A14200D100BF9C
:103400000A1201249440A3B2DC43048010BD0000E2
:10341000003801400044004000480040004C00409B
:1034200000500040DF48006840F00100DD490860BE
:1034300008464068DC490840DA49486008460068A8
:10344000DA490840D74908600846006820F480201F
:1034500008600846406820F4FE0048604FF41F00F2
:1034600088607047CF49096821F48031CD4A1160E6
:103470001146096821F480211160B0F5803F03D026
:10348000B0F5802F0ED106E0C649096841F48031BD
:10349000C44A116007E0C349096841F4A021C14A48
:1034A000116000E000BF00BF704710B50146002268
:1034B000002300204A11012A02D1BA4C236806E0F9
:1034C000022A02D1B74C236A01E0B64C636A01F0CC
:1034D0001F02012494401C400CB1012000E0002098
:1034E00010BD38B5002000900024002500BF312019
:1034F000FFF7DBFF05460098401C00900098B0F5F0
:10350000A06F01D0002DF2D03120FFF7CEFF08B11F
:10351000012400E00024204638BD01460020A14AD5
:10352000106820F0F80040EAC10010607047A04920
:1035300008607047024600209A4B586820F47C10BF
:1035400042EA01031843974B586070479849086650
:10355000704701460020934A506820F0030008435A
:10356000506070478F48406800F00C00704701467B
:1035700000208C4A506820F0F000084350607047EB
:1035800001460020874A506820F4E06008435060FC
:10359000704701460020834A506820F4605040EA9A
:1035A000C1005060704729B17E4A527A02437D4B78
:1035B0005A7204E07B4A527A82437A4B5A727047BD
:1035C0007B49D8310860704701460020754A506831
:1035D00020F440400843506070470021714A203277
:1035E0001170704A82F82010012802D004280AD1F4
:1035F00004E001216B4A2032117005E00521694A7F
:103600002032117000E000BF00BF704769490860B8
:1036100070476449096A0143624A1162704765490B
:1036200044390860704730B500210022002400238F
:103630005C4D6D6805F00C0121B1042905D0082905
:1036400023D105E05C4D056022E05B4D05601FE085
:10365000544D6D6805F47012524D6D6805F4803458
:10366000022505EB92421CB9544D554305600BE011
:103670004C4D6D6805F400351DB1504D5543056046
:1036800002E04D4D5543056002E04B4D056000BF23
:1036900000BF444D6D6805F0F0010909484D6B5CB1
:1036A0000568DD4045603F4D6D6805F4E061090A3D
:1036B000434D6B5C4568DD4085603A4D6D6805F4AF
:1036C0006051C90A3E4D6B5C4568DD40C560354DB3
:1036D0006D6805F44041890B3A4D6B5CC568B5FBDC
:1036E000F3F5056130BD29B12E4A526902432D4BD5
:1036F0005A6104E02B4A526982432A4B5A6170474F
:1037000029B1284A92690243264B9A6104E0254A6E
:1037100092698243234B9A61704729B1214AD26949
:103720000243204BDA6104E01E4AD26982431D4BFA
:10373000DA61704729B11B4AD2680243194BDA603B
:1037400004E0184AD2688243164BDA60704729B108
:10375000144A12690243134B1A6104E0114A1269B8
:103760008243104B1A617047124940390860704714
:103770000F49C86470470B49C87170470948406ACF
:1037800040F0807007494862704701460020054AB2
:1037900092680A400AB1012000E000207047014908
:1037A00088727047001002400000FFF8FFFFF6FE2D
:1037B000000042428004424200127A0000093D00AB
:1037C0002B0000203B0000200CB500200190009051
:1037D0006C48006840F480306A49086000BF69485E
:1037E000006800F4003000900198401C019000989F
:1037F00018B90198B0F5A06FF1D16248006800F4E3
:10380000003010B10120009001E0002000900098ED
:10381000012843D15C48006840F010005A49086014
:103820000846006820F0030008600846006840F081
:1038300002000860534840685249486008464068A2
:1038400048600846406840F4806048600846406828
:1038500020F47C1048600846406840F4E810486056
:103860000846006840F08070086000BF4548006866
:1038700000F000700028F9D04248406820F00300B2
:10388000404948600846406840F00200486000BF78
:103890003C48406800F00C000828F9D10CBD10B578
:1038A000FFF792FF10BD10B53648006840F00100E8
:1038B0003449086008464068344908403149486046
:1038C00008460068324908402E49086008460068EA
:1038D00020F4802008600846406820F4FE0048601C
:1038E0004FF41F008860FFF7DAFF4FF000602949AE
:1038F000086010BD10B5002100200022214B5B683C
:1039000003F00C0121B1042906D0082928D107E0D1
:10391000214B224C236027E01F4B204C236023E0E7
:10392000184B5B6803F47010164B5B6803F480322D
:10393000022303EB904022B9194B4343174C2360F9
:103940000DE0104B5B6803F4003323B1144B434389
:10395000124C236003E0104B4343104C236003E000
:103960000D4B0E4C236000BF00BF064B5B68C3F3DA
:1039700003130C4CE15C094B1B68CB40074C2360E4
:1039800010BD000000100240002002400000FFF8BF
:10399000FFFFF6FE08ED00E000127A004000002074
:1039A00000093D0044000020704700BFFEE700BF53
:1039B000FEE700BFFEE700BFFEE7704770477047B5
:1039C00002480068401C014908607047540000200C
:1039D00000B587B0012141F20400FFF791FEA0205D
:1039E000ADF8180003208DF81A0018208DF81B0080
:1039F00006A9FE48FEF730F94020ADF81800042073
:103A00008DF81B0006A9F948FEF726F900BF4FF410
:103A10008070ADF8000010208DF8030003208DF8B1
:103A2000020001221102F248FEF7C7F96946F04888
:103A3000FEF712F900BF0020ADF804004FF48270C9
:103A4000ADF806000020ADF80800ADF80A00ADF8AA
:103A50000C004FF40070ADF80E002820ADF81000F7
:103A60000020ADF812000720ADF8140001A9E148CC
:103A7000FEF766FA0121DF48FEF707FB07B000BD3D
:103A80002DE9F84305460E4614460020009002E05A
:103A90000098401C00900098FF28F9D300224FF4B2
:103AA0008071D348FEF789F92946D248FEF71EFBFC
:103AB00000BF0221CF48FEF76CFB0028F9D000BF01
:103AC0000121CC48FEF765FB0028F9D0C948FEF774
:103AD0000FFB00F0FF08002718E02178C548FEF72B
:103AE00005FB00BF0221C348FEF753FB0028F9D0B5
:103AF00000BF0121BF48FEF74CFB0028F9D0BD48AC
:103B0000FEF7F6FA00F0FF08641C7F1CB742E4D30E
:103B100001221102B648FEF750F9BDE8F8832DE9FD
:103B2000F84305460E4614460020009002E0009837
:103B3000401C00900098FF28F9D300224FF48071B8
:103B4000AB48FEF73AF92946AA48FEF7CFFA00BF7C
:103B50000221A848FEF71DFB0028F9D000BF012173
:103B6000A448FEF716FB0028F9D0A248FEF7C0FAD9
:103B700000F0FF0800219F48FEF7B8FA00BF0221BD
:103B80009C48FEF706FB0028F9D000BF01219948A8
:103B9000FEF7FFFA0028F9D09648FEF7A9FA00F0E0
:103BA000FF08002717E000219248FEF79FFA00BFA8
:103BB00002219048FEF7EDFA0028F9D000BF01215C
:103BC0008C48FEF7E6FA0028F9D08A48FEF790FA0A
:103BD0002070641C7F1CB742E5D301221102844887
:103BE000FEF7EBF8BDE8F88338B50546082D54D24A
:103BF000DFE805F0493F352B21180E040024002191
:103C00007D487E4AC2E900107D487E4908604DE04B
:103C1000012400217C48794AC2E900107B48794997
:103C2000086043E0022400207949744A03C27948BD
:103C3000744908603AE00324002177486F4AC2E9DA
:103C4000001076486F49086030E004240021744871
:103C50006A4AC2E9001073486A49086026E00524F0
:103C600000217148654AC2E9001070486549086042
:103C70001CE0062400216E48604AC2E900106D482D
:103C80006049086012E0072400216B485B4AC2E9E2
:103C900000106A485B49086008E00024002056498B
:103CA000564A03C256485749086000BF00BF00206B
:103CB000009002E00098401C00900098FF28F9D383
:103CC00001205F49087008464470024602219E2088
:103CD000FFF7D6FE38BD2DE9F04F93B0054600241E
:103CE00061E055F82400002111F070F902D1DFF8ED
:103CF000549118E055F8240020F000410846019145
:103D000011F004F907463A460B463C4903C911F045
:103D10001CF8824600224C4B10F09FFFCDE90201B7
:103D200011F038F98146484611F0F0F807460022B4
:103D3000464B11F017F902D2DFF808910BE0484624
:103D400011F0E4F8074600224FF0804311F0F2F83A
:103D500001D84FF08049484611F0ABF807A941F867
:103D6000240051F8240011F068F88246494610F00A
:103D700060FE80464FF08F4110F05EFE074611F066
:103D800098F804A921F8140055F82400002111F036
:103D900027F904D20120A0403043C6B202E001203E
:103DA000A0408643641C052C9BDB0798C0B28DF8AD
:103DB00030000798000A8DF831000798000C8DF844
:103DC0003200BDF81000C0B28DF83300BDF810000D
:103DD00000128DF834000898C0B28DF835000898AC
:103DE000000A8DF836000898000C31E00008014008
:103DF000001001400030014080841E416800002016
:103E00000AD7A33CFC030020006A18416F12833CD0
:103E100080840E410AD7233C006A08416F12033C9C
:103E20008084FE400AD7A33B006AF8406F12833BB0
:103E3000006AE8406F12033B006AD8406F12833A71
:103E400070000020004786490000F03FE0C8304184
:103E50008DF83700BDF81200C0B28DF83800BDF8FB
:103E6000120000128DF839000998C0B28DF83A009E
:103E70000998000A8DF83B000998000C8DF83C0069
:103E8000BDF81400C0B28DF83D00BDF8140000125A
:103E90008DF83E000A98C0B28DF83F000A98000ADB
:103EA0008DF840000A98000C8DF84100BDF816000E
:103EB000C0B28DF84200BDF8160000128DF8430024
:103EC0000B98C0B28DF844000B98000A8DF845009D
:103ED0000B98000C8DF84600BDF81800C0B28DF8A4
:103EE0004700BDF8180000128DF848008DF84960B1
:103EF000C2480088C0B28DF84A00C048008800124D
:103F00008DF84B000CAA1C218020FFF7B9FD13B0DF
:103F1000BDE8F08F2DE9F14F86B00021069811F031
:103F200055F801D1B64D17E0069820F0004108463B
:103F3000019110F0EBFF07463A460B46B14903C921
:103F400010F003FF82460022AF4B10F086FECDE951
:103F5000020111F01FF80546284610F0D7FF07466A
:103F60000022AA4B10F0FEFF01D2A54D0BE028461F
:103F700010F0CCFF074600224FF0804310F0DAFF2C
:103F800001D84FF08045284610F093FF04462046A4
:103F900010F053FF8246294610F04BFD80464FF04B
:103FA0008F4110F049FD074610F083FF1FFA80F99A
:103FB0000021069811F014F801D2012605E0002135
:103FC000069811F003F800D20026E0B28DF8100038
:103FD000200A8DF81100200C8DF8120009F0FF0066
:103FE0008DF813004FEA29208DF814008DF8156024
:103FF00004AA0621A820FFF743FD07B0BDE8F08F13
:104000002DE9FC5F8248006882490860824A0521E8
:104010003A20FFF784FD804800787F49497800EB1B
:1040200001207D49897800EB01407B49C97800EB8C
:1040300001607749086078480079784908707448C9
:10404000006874490968884203D0012074490870E7
:1040500002E00020724908707249D1F8240310F080
:1040600055FF04460D466A4909686F4A1268881A66
:1040700010F0E8FE804600226C4B10F066FE06460B
:1040800000226B4B10F0EFFD824622462B4610F0CB
:1040900043FDCDE9000110F07DFF66490860BDE8F1
:1040A000FC9F2DE9FC5F82466348007848BB63496A
:1040B000504610F095FF02D2DFF880A106E060497B
:1040C000504610F083FF01D2DFF874A18AF0004B54
:1040D000584610F01BFF00225A4BCDE9000110F0AA
:1040E000C2FD06460022584B10F02FFE0446002267
:1040F000564B10F011FD804610F0EFFE3F4908804E
:1041000028E05349504610F06BFF02D2DFF840A17F
:1041100006E05049504610F059FF01D2DFF834A1B3
:104120008AF0004B584610F0F1FE06460022454B3F
:1041300010F099FD80460022474B10F006FE044621
:104140000022424B10F0E8FCCDE9000110F0C5FE62
:104150002A490880BDE8FC9F1FB54FF40070ADF8F8
:104160000C0004208DF80F0003208DF80E0003A929
:104170003A48FDF771FD01210846FFF7C1FA092110
:104180000220FDF77FFE4FF40070009000208DF8B4
:1041900004000C208DF8050001208DF8060068460B
:1041A000FDF77AFC17208DF8080003208DF8090030
:1041B00002208DF80A0001208DF80B0002A8FDF7FF
:1041C000CCF91FBD10B5FFF703FCFFF7C5FF10BD0D
:1041D00010B504462046FFF707FD10BD10B54FF49B
:1041E0000070FDF7D0FC06F07AF90AF0ABFEFFF79D
:1041F00007FF01201A49087010BD00005800002078
:1042000000478649680000200000F03FE0C83041C8
:10421000740000207800002080000020E0030020CF
:10422000E3030020B09B00207C000020004075408C
:10423000000022405C00002018040020000007431A
:10424000000007C300408F4000E0604000709740CE
:1042500000001643000016C300C062400010014079
:10426000C00000201FB505460F46D5F80080D5F8E0
:104270000490D5F808A0D5F80CB0286903906869B7
:104280000290A8690190E86900905BA012F09AFE84
:10429000414667A012F096FE494669A012F092FED0
:1042A00051466BA012F08EFE59466DA012F08AFEA8
:1042B0006FA0039912F086FE394671A012F082FEBB
:1042C00073A0029912F07EFE75A0019912F07AFE99
:1042D00077A0009912F076FE79480468214679A00B
:1042E00012F070FEC4F3C0317AA012F06BFEC4F37A
:1042F00000317DA012F066FEC4F3C0217FA012F051
:1043000061FEC4F3802182A012F05CFEC4F3402160
:1043100084A012F057FEC4F3002187A012F052FED1
:10432000C4F3C01189A012F04DFEC4F300118CA09B
:1043300012F048FEC4F3C0018EA012F043FEC4F395
:10434000400191A012F03EFE04F0010193A012F092
:1043500039FEC4F3406196A012F034FEC4F300614C
:1043600098A012F02FFEC4F3C0419BA012F02AFEC9
:10437000C4F380419DA012F025FEC4F34041A0A0EB
:1043800012F020FEC4F30041A2A012F01BFE4C4824
:10439000001D06683146A4A012F014FEF10FA6A07D
:1043A00012F010FEC6F38071A8A012F00BFEC6F347
:1043B0004001ABA012F006FE414808300168ADA0F4
:1043C00012F000FE3E4814300168AEA012F0FAFD73
:1043D0003B4810300168AFA012F0F4FD38480C30B3
:1043E0000168B0A012F0EEFD00BFFEE7B1A012F030
:1043F000E9FD00BFFEE7000023232323232323231B
:1044000023232323232323234861726420666175B9
:104410006C742068616E646C65725D2323232323B2
:1044200023232323232323232323230D0A000000F4
:1044300052302020203D203078253038780D0A0079
:1044400052312020203D203078253038780D0A0068
:1044500052322020203D203078253038780D0A0057
:1044600052332020203D203078253038780D0A0046
:1044700052313220203D203078253038780D0A0026
:1044800053502020203D203078253038780D0A0008
:104490004C522020203D203078253038780D0A00FD
:1044A00050432020203D203078253038780D0A00F8
:1044B00050535220203D203078253038780D0A00A6
:1044C00028ED00E043465352203D20307825303817
:1044D000780D0A00204246415256414C4944202062
:1044E000203A25640D0A00002053544B45525220B7
:1044F00020202020203A25640D0A000020554E532C
:10450000544B455252202020203A25640D0A0000C9
:1045100020494D505245434953455252203A256453
:104520000D0A000020505245434953455252202065
:10453000203A25640D0A0000204942555345525245
:1045400020202020203A25640D0A0000204D4D41F6
:104550005256414C49442020203A25640D0A00005F
:10456000204D53544B45525220202020203A2564A0
:104570000D0A0000204D554E53544B4552522020F9
:10458000203A25640D0A0000204441434356494F18
:104590004C202020203A25640D0A00002049414388
:1045A0004356494F4C202020203A25640D0A000034
:1045B0002044495642595A45524F2020203A2564FA
:1045C0000D0A000020554E414C49474E45442020DD
:1045D000203A25640D0A0000204E4F435020202031
:1045E00020202020203A25640D0A000020494E5644
:1045F0005043202020202020203A25640D0A00006E
:1046000020494E565354415445202020203A2564D9
:104610000D0A000020554E444546494E5354522041
:10462000203A25640D0A000048465352203D2030B0
:1046300078253038780D0A002044454255474556C4
:1046400054202020203A25640D0A000020464F52B5
:104650004345442020202020203A25640D0A0000F4
:104660002056454354424C2020202020203A2564E7
:104670000D0A000044465352203D20307825303842
:10468000780D0A0041465352203D203078253038BD
:10469000780D0A0042464152203D203078253038BE
:1046A000780D0A004D4D4152203D2030782530389C
:1046B000780D0A00537461636B206F766572666CC7
:1046C0006F77210D0A00000010B586B00446012165
:1046D00044F20400FFF714F84FF40070ADF8140032
:1046E00018208DF8170003208DF8160005A98748BB
:1046F000FDF7B2FA4FF48060ADF8140004208DF895
:10470000170005A98148FDF7A7FA01940020ADF82C
:104710000800ADF80A00ADF80C00ADF810000C2050
:10472000ADF80E0001A97A48FEF7BBFC01217848DC
:10473000FEF743FD40217648FEF727FE012240F2B6
:1047400025517348FEF745FD25208DF80000022015
:104750008DF801008DF8020001208DF803006846F5
:10476000FCF7FBFE06B010BD08B540F225516848C5
:10477000FEF714FE58B16648FEF790FDC0B20090F7
:104780006448417B11B96946FBF766FD1BE040F2C6
:1047900027715F48FEF702FEA8B100BF5D482A38C6
:1047A000007B50B969465B482A38FBF784FD9DF8C9
:1047B00000105748FEF76EFD05E0002240F2277119
:1047C0005348FEF706FD08BD70B586B006460C4698
:1047D000154601211020FEF793FF0121C804FEF7C2
:1047E0009CFF4FF48060ADF8140018208DF817007E
:1047F00003208DF8160005A94748FDF72DFA4FF460
:104800000060ADF8140004208DF8170005A9424897
:10481000FDF722FA01960020ADF808001CB14FF414
:104820008050ADF808000020ADF80A00ADF80C008B
:10483000ADF810000C20ADF80E0001A93748FEF7C6
:1048400030FC01213548FEF7B8FC40213348FEF723
:104850009CFDA5B1012240F225513048FEF7B9FC7C
:1048600034208DF8000004208DF801008DF802003E
:1048700001208DF803006846FCF76FFE13E000226C
:1048800040F225512548FEF7A4FC34208DF80000A5
:1048900004208DF801008DF8020000208DF803003F
:1048A0006846FCF75AFE06B070BD08B540F22551C7
:1048B0001A48FEF773FD68B11848FEF7EFFCC0B266
:1048C000009000BF1648407B18B969461448FBF7B2
:1048D000C3FC19E040F227711048FEF75FFD98B164
:1048E00000BF1048007B48B969460E48FBF7E3FC5F
:1048F0009DF800100948FEF7CDFC05E0002240F2CB
:1049000027710648FEF765FC08BD0000000801405D
:10491000003801400434002000100140004C0040E9
:1049200046680020706C002010B501239A022849C7
:104930002848FBF76BFC01231A03274925482A3036
:10494000FBF764FCAD23082224492548FBF75EFCF5
:10495000AD230822234922482A30FBF757FC0123C4
:104960001A0321492148FBF751FC01231A0320496E
:104970001E482A30FBF74AFCAD2308221D491E4879
:10498000FBF744FCAD2308221C491B482A30FBF7E7
:104990003DFC012314221A491A48FBF737FC10BDCD
:1049A00010B5194890F8470300B110BD094806F04A
:1049B0003EFF00BF0748D0F80E0028B1012240F2A8
:1049C00027711248FEF705FC00F06CFE00BFECE713
:1049D0000A090020DA3300200A1900200A290020E1
:1049E00035360020722E00208936002059610020C3
:1049F0008946002089560020B4630020F15B002026
:104A0000086400201C640020B09B00200038014096
:104A10002DE9F04106460C4620460FF0AAFE074657
:104A2000002504E061193046FBF716FC6D1CBD4201
:104A3000F8D3BDE8F08110B5FBF76AFEFBF7F6FC92
:104A400010BD10B5012240F22771FE48FEF7C1FBF0
:104A500000BFFD4812F061FA0028FAD010BD10B571
:104A6000FFF7EFFF10BD2DE9F04FA1B007460C4650
:104A70004FF0000A802101A80FF05EFE0025F348E8
:104A8000D0F80080002F42D03AE006E028466D1CA6
:104A900001AA8118EE48FBF70EFCED4812F03DFA32
:104AA0000028F3D0EBA10DF1060012F083FA10B14B
:104AB0004FF0010A2AE0E9A10DF1060012F07AFA9E
:104AC000E8B1E8A10DF1060012F074FAB8B1E4A162
:104AD0000DF1060012F06EFA0646E2A10DF1060095
:104AE00012F068FA8146002089F80000701C0FF06F
:104AF0002DFF83465946DCA012F064FA06E000BFA1
:104B0000D248016808F5FA708142BED331E029E04D
:104B100006E028466D1C01AA8118CD48FBF7CBFBA7
:104B2000CB4812F0FAF90028F3D0D4A10DF1060019
:104B300012F040FA8146CBA10DF1060012F03AFACC
:104B40000646B9F1000F0CD05EB10021A81E01AAE3
:104B500011541CB1911D20460FF02DFE4FF0010A9B
:104B600006E000BFB948016808F5FA708142CFD36A
:104B700000BF504621B0BDE8F08F70B504460D4629
:104B800029462046FFF76FFF70BDF0B5A1B006467D
:104B90000C46002E78D02078002876D0AC48FBF761
:104BA0004BFBA948FBF748FBB6A1A748FFF730FF2E
:104BB000FFF747FFA548076800BFA448016807F54D
:104BC000FA70814204D2A24812F0A7F90028F4D169
:104BD0009F4812F0A2F928B1AB49ACA012F0F2F94B
:104BE00021B0F0BD0020209003E020A99848FBF7F9
:104BF00062FB974812F091F90028F6D09DF88000EA
:104C0000612804D0A049AAA012F0DCF9E8E7B0A11D
:104C10008D48FFF7FDFEFFF714FF8C48076800BFC3
:104C20008A48016807F5FA70814204D2884812F078
:104C300077F90328F4D3864812F072F9032804D2D6
:104C40009149A4A012F0BEF9CAE7802168460FF08E
:104C500073FD002506E028466D1C6A4681187C48D5
:104C6000FBF729FB7A4812F058F90028F3D000200E
:104C70000DF80500A0A168460FF082FD30B1824911
:104C80009EA012F09FF9ABE751E03EE0A3A16E4871
:104C9000FFF7BEFEFFF7D5FE00210120FFF7E3FE80
:104CA000A1A16948FFF7B4FEFFF7CBFE0021012068
:104CB000FFF7D9FEA0A34BF60372A3A1684612F03A
:104CC00091F969466048FFF7A3FEFFF7BAFE69460F
:104CD0000120FFF7C8FEA1A1684612F083F96846DB
:104CE00012F070F969465848FFF792FEFFF7A9FEE7
:104CF00069460120FFF7B7FE18B16349A0A012F082
:104D000061F90120A749087014E0A7A14E48FFF7F8
:104D10007FFEFFF796FE00210120FFF7A4FE10B1F1
:104D2000A3A012F04FF900209E49087002E09D48B0
:104D30000078207000BF53E72DE9FF4FAFB00C465D
:104D400015461E463C9F2F9800285FD04048FBF731
:104D500073FA3D48FBF770FA24B19D482168016061
:104D60002179017115B19B482968016016B19A48F3
:104D70003168016017B199483968016080210FA836
:104D80000FF0DAFC9248007820B195A10FA812F03C
:104D900029F92DE09148C2788078904949788F4B65
:104DA0001B78CDE90A31CDE90C028B48C0788A49DD
:104DB0008978894A5278884B1B78CDE90632CDE94B
:104DC00008108448C17882784078824B1B78CDE9FE
:104DD0000230CDE904217E4800797D49C978CDE9CA
:104DE00000107B488378427881490FA812F0FAF8C6
:104DF0000FA812F0E7F80FA91348FFF709FEFFF715
:104E000020FE00212F98FFF72EFE98E11048FBF7B7
:104E100013FA0D48FBF710FA76A10B48FFF7F8FDDF
:104E2000FFF70FFE00BF80210FA80FF085FC0FA930
:104E30002F98FFF718FE002802D00FA80A90DFE095
:104E40006AE10000004C0040706C0020540000201B
:104E5000466800202B4F4B0D0A0000002B45525294
:104E60003D0000000D0A00005B4552524F525D4369
:104E70006F64653A25640D0A000000002B4F4B3D1E
:104E8000000000002B2B2B00348F01085B45525291
:104E90004F525D25733A52656365697665202761D7
:104EA000272074696D656F7574210D0A000000007C
:104EB0005B4552524F525D25733A52656365697680
:104EC0006564206E6F7420276127210D0A000000A1
:104ED000610000005B4552524F525D25733A5265A6
:104EE000636569766520272B4F4B272074696D65B4
:104EF0006F7574210D0A00002B4F4B005B45525219
:104F00004F525D25733A52656365697665206E6F11
:104F10007420272B4F4B27210D0A000041542B45AD
:104F20003D6F66660D0A000041542B574D4F4445B6
:104F30003D5354410D0A000057686F2069732044A7
:104F40006F626F743F00000041542B534541524340
:104F5000483D25642C25730D0A00000041542B5355
:104F60004F434B413D554450532C3139322E31364D
:104F7000382E312E312C383839390D0A0000000016
:104F800025733A53657420554450205365727665F5
:104F900072207375636365737366756C6C79210D2C
:104FA0000A0000009000002041542B5A0D0A000016
:104FB00057694669206D6F64756C6520697320724E
:104FC0006573657474696E672E2E2E0D0A000000DD
:104FD00093000020980000209C000020A0000020EA
:104FE00041542B57414E4E3D444843500D0A00005A
:104FF00080A1010841542B57414E4E0D0A0000007C
:10500000FBA10A9811F0D6FF00F10108F8A1404673
:1050100011F0D0FF00F10109F5A1484611F0CAFFD7
:1050200000F1010AF2A1504611F0C4FF00F1010B9A
:105030000A9800286FD0B8F1000F6CD0B9F1000FBA
:1050400069D0BAF1000F66D0BBF1000F63D0002029
:1050500008F8010C09F8010C0AF8010C0BF8010C16
:10506000E4A10A980FF08CFB08B9012000E00020B1
:10507000E24908700EA80DA90CAB0BAACDE90010EF
:10508000DFA140460FF0A0FB002006E00BA911F8BD
:105090002020DA49491C0A54401C0428F6D30EA8E3
:1050A0000DA90CAB0BAACDE90010D5A148460FF015
:1050B0008BFB002005E00BA911F82010D34A1154F6
:1050C000401C0428F7D30EA80DA90CAB0BAACDE900
:1050D0000010CBA150460FF077FB002005E00BA994
:1050E00011F82010CA4A1154401C0428F7D30EA806
:1050F0000DA90CAB0BAACDE90010C1A158460FF0C9
:1051000063FB002005E00BA911F82010C14A1154DF
:10511000401C0428F7D300BF24B1B84801682160BF
:105120000079207115B1B9480068286016B1B848F7
:105130000068306017B1B7480068386000BF33B00E
:10514000BDE8F08FF0B5A1B007460D461446002F1C
:105150002CD0B148FBF770F8B048FBF76DF81DB1E3
:105160002946AF480FF027FB1CB12146AD480FF090
:1051700022FB802101A80FF0DFFAAA4BA84AAAA1BE
:1051800001A811F02FFF01A811F01CFF01A9A348ED
:10519000FFF73EFCFFF755FC00213846FFF763FCA4
:1051A00018B1A549A5A011F00DFF31E09A48FBF711
:1051B00043F89A48FBF740F8AAA19848FFF728FC63
:1051C000FFF73FFC00BF802101A80FF0B5FA01A94D
:1051D0003846FFF748FC80B185A101A811F0EAFE2E
:1051E00006464EB10020307001A98D480FF0E3FA59
:1051F000711C8C480FF0DFFA00BF1DB188492846AA
:105200000FF0D9FA1CB1874920460FF0D4FA00BF3D
:1052100021B0F0BDF0B5ADB0002600BF01220021E5
:105220004FF4E130FFF7D0FA01202C902CA9FFF7C2
:10523000ACFC8F48007800286DD000221146104643
:10524000FFF780FF00200346024601460090FFF76B
:1052500073FD00BF80210BA80FF06EFA85A16F4887
:10526000FFF7D6FBFFF7EDFB0BA90020FFF7FBFBD9
:105270000BAD5FA10BA811F09DFE0446002D18D0C8
:10528000002C16D000202070641C7DA128460FF051
:1052900077FA48B120460FF059FB07463A462946AF
:1052A0007BA011F08FFE04E05E4A5D4980A011F002
:1052B00089FE5748C07856498978554A5278544BE8
:1052C0001B78CDE90632CDE908105048C2788078C5
:1052D0004E4949784D4B1B78CDE90231CDE90402A6
:1052E000464800794549C978CDE90010434883789C
:1052F0004278007808B13FA000E079A001467AA08A
:1053000011F060FE00BF00202B902BA90120FFF7B9
:105310003CFC012600BF00BF30462DB0F0BDF0B50B
:10532000A1B006460C46002E5ED0207800285CD046
:105330003948FAF781FF3948FAF77EFFAFF2BC41EE
:105340003648FFF765FBFFF78AFB7448076800BF24
:105350007248016807F5FA70814204D22E4811F0B4
:10536000DCFD0028F4D12C4811F0D7FD30B16C4998
:10537000AFF2E84011F026FE21B0F0BD00202090F1
:1053800003E020A92448FAF796FF234811F0C5FD51
:105390000028F6D09DF88000612805D06049AFF262
:1053A000F04011F00FFEE7E7AFF2DC411B48FFF7DA
:1053B0002FFBFFF754FB5948076800BF57480168A7
:1053C00007F5FA70814204D2134811F0A9FD0328B1
:1053D000F4D3114811F0A4FD032807D25049AFF2CD
:1053E0000C5011F0EFFDC7E7DCE0C9E09AE00000E7
:1053F0002C000000444843500000000093000020AF
:1054000025642E25642E25642E2564009800002036
:105410009C000020A000002046680020706C002046
:105420009A6C0020BA6C002041542B575354413DD4
:1054300025732C25730D0A00518F010825733A53EB
:1054400065742053534944206F72207061737377E1
:105450006F7264207375636365737366756C6C79C2
:10546000210D0A0041542B575354410D0A000000EE
:105470009000002041542B57534C4B0D0A00000064
:10548000444953434F4E4E454354454400000000A9
:10549000436F6E6E656374656420415020535349B9
:1054A000443A25732C20727373693A25640D0A00FF
:1054B000415020646973636F6E6E65637465642127
:1054C0002053746F72656420535349443A25732CFA
:1054D0002070617373776F72643A25730D0A000050
:1054E00053544154494300004D6F64653A25732C71
:1054F0002025642E25642E25642E25642C20256409
:105500002E25642E25642E25642C2025642E2564EA
:105510002E25642E25640D0A000000005400002092
:10552000438F0108802168460FF006F9002506E048
:1055300028466D1C6A468118BE48FAF7BCFEBD4875
:1055400011F0EBFC0028F3D000200DF80500BAA103
:1055500068460FF015F928B1B849AFF2606011F054
:1055600031FD09E7B6A1B948FFF752FAFFF769FA2A
:1055700000210120FFF777FA0120B549087014E0F7
:10558000B4A1B248FFF744FAFFF769FA00210120FD
:10559000FFF7F3FA10B1B2A011F014FD0020AC49EE
:1055A000087002E0AA480078207000BFE4E638B531
:1055B000002400BF012200214FF46140FFF704F9ED
:1055C000012000906946FFF7AAFEA148007830B19B
:1055D00001240020009069460120FFF7A0FE00BFD3
:1055E000204638BD10B501239A02A5499148FAF723
:1055F0000DFE01239A02A3499448FAF707FEFFF72C
:1056000009FE18B10120A04908702DE0FFF7CFFF77
:1056100018B102209C49087026E0FFF70CFA18B177
:105620000320994908701FE0002097490870012263
:1056300000214FF4E130FFF7C7F8944800780128C3
:1056400012D1934890F8F40270B980219148FCF788
:10565000B0FB4FF480718F48FCF7ADFB8C4890F89D
:10566000F4128DA011F0AEFC7248FAF7E5FD774810
:10567000FAF7E2FD10BD84480078704710B50320AA
:1056800081490870084601788CA011F09BFC10BD80
:1056900010B500207C490870084601788DA011F0F3
:1056A00091FC10BD38B59048007877490978884258
:1056B00008D0754800788C490870734801788BA031
:1056C00011F080FC9048007800B938BD6E48007831
:1056D000002871D0012869D0022804D0032801D104
:1056E000FBF7EDF9A2E00AE069465248FAF7E3FD5C
:1056F0008648417B11B96946FAF7AEFD00BF4D48B7
:1057000011F00BFC0028EFD080482A3806F08FF803
:105710007F48007820B101282FD0022844D138E0FA
:105720004A4811F0FAFB38B378482A3811F0F5FBF3
:1057300010BB76482A3811F0F3FB0446142C01D92B
:10574000142000E020460446002509E069466F4821
:105750002A38FAF7B0FD69463C48FAF77DFD6D1C22
:10576000A542F3D3012240F227716A48FDF731FDCB
:1057700001206749087000BF16E0344811F0CDFBE6
:1057800030B16548006865490860022060490870CA
:105790000AE06148006861490968401A462802D950
:1057A00000205B49087000BF00BF3FE05C48007804
:1057B00008B13BE000E000BF0AE069461D48FAF787
:1057C0007AFD5248417B11B96946FAF745FD00BFA1
:1057D000184811F0A2FB0028EFD04C482A3806F0F8
:1057E00026F81A4811F099FBF8B148482A3811F008
:1057F00094FBD0B90DE0694644482A38FAF75BFDBE
:1058000000BF1248407B18B969461048FAF724FDDA
:1058100000BF3E482A3811F080FB0028EBD001225F
:1058200040F227713B48FDF7D4FC00BF00BF00BF2A
:105830004BE70000466800202B6F6B00438F010888
:1058400041542B52454C4F41440D0A00706C0020CE
:105850009100002041542B454E544D0D0A0000008C
:10586000424C45206D6F64756C65206973207265CC
:1058700073657474696E672E2E2E0D0A0000000089
:105880004664002070680020880000204A04002040
:10589000B09B002000180140556172743420436CA5
:1058A0006F7365457874656E64506F7274205061D3
:1058B00072616D733A25640D0A00000053657443EC
:1058C00048333735547970653A25642121210D0A12
:1058D0000000000053657455415254547970653A84
:1058E00025642121210D0A00A400002067554152A2
:1058F00054345065726970686572616C7354797064
:10590000653A25640D0A00009200002083610020A2
:1059100089000020004C0040540000208C00002032
:105920009000002038B505460C46ADF80040042034
:105930008DF8030003208DF8020069462846FCF725
:105940008BF938BD08B51021FE48FFF7EBFF202189
:10595000FC48FFF7E7FF1021FA48FCF710FAFA4974
:1059600008702021F748FCF70AFAF749097841EA5C
:105970004000F54908700846007801287ED100BF34
:10598000C003ADF8000010208DF8030003208DF84F
:1059900002006946EB48FCF75FF900BF00BF8020BA
:1059A000ADF8000010208DF8030003208DF80200F0
:1059B0006946E648FCF750F900BF00BF8020ADF80B
:1059C000000010208DF8030003208DF802006946C6
:1059D000DC48FCF741F900BF00BF4FF48070ADF820
:1059E000000010208DF8030003208DF802006946A6
:1059F000D448FCF731F900BF00BF4FF40050ADF8B8
:105A0000000010208DF8030003208DF80200694685
:105A1000CE48FCF721F900BF00BF0120ADF800001F
:105A200010208DF8030003208DF802006946C54858
:105A3000FCF712F900BF00BF4FF40060ADF80000A2
:105A400010208DF8030003208DF802006946BF483E
:105A5000FCF702F900BF00BF4FF40040ADF80000B2
:105A600010208DF8030003208DF802006946B84825
:105A7000FCF7F2F800BF00BF082000E031E0ADF80D
:105A8000000010208DF8030003208DF80200694605
:105A9000AE48FCF7E1F800BF4FF40041A948FCF71D
:105AA0008AF98021A748FCF786F94FF48071A54850
:105AB000FCF77FF94FF40051A448FCF77AF9012173
:105AC000A048FCF778F94FF40061A048FCF771F9A1
:105AD0004FF400419E48FCF76EF908219B48FCF703
